:020000040800F2
:10000000500B00206D020008FD1D0008CD1A0008ED
:10001000F91D00081D0C00086D36000800000000E6
:10002000000000000000000000000000D1340008C3
:10003000210C000800000000CD340008AD35000898
:10004000870200088702000887020008870200086C
:10005000870200088702000887020008870200085C
:10006000870200088702000887020008870200084C
:10007000870200088702000887020008870200083C
:10008000870200088702000887020008870200082C
:10009000870200088702000887020008870200081C
:1000A000870200088702000887020008870200080C
:1000B00087020008870200088702000887020008FC
:1000C00087020008870200088702000887020008EC
:1000D00087020008870200088702000887020008DC
:1000E00087020008870200088702000887020008CC
:1000F00087020008870200088702000887020008BC
:1001000087020008870200088702000887020008AB
:10011000870200088702000887020008870200089B
:10012000870200088702000887020008870200088B
:10013000870200088702000887020008870200087B
:10014000870200088702000887020008870200086B
:10015000870200088702000887020008870200085B
:10016000870200088702000887020008870200084B
:1001700087020008870200088702000800000000CC
:10018000870200088702000800F002F800F05FF81C
:1001900014A696E8000CB244B344DA4501D100F04D
:1001A00056F8BAE80F000FA696E83000A5EB040554
:1001B00004EB0607AAEB0704A7F101074FEA1515A0
:1001C0004FEA3414A4F10104AC4201D300F03FF82B
:1001D00013F0010F18BFFB1A43F0010300F001F800
:1001E000DBE71847605F0000805F0000103A24BF23
:1001F00078C878C1FAD8520724BF30C830C144BF8C
:1002000004680C6070470000704700000023002461
:1002100000250026103A28BF78C1FBD8520728BF16
:1002200030C148BF0B607047662904F03E80002053
:1002300070471FB504F02CF800F07AFB0400002092
:10024000002103F0FDFEE0601FBD10B510BD00F001
:100250006FFC1146FFF7EDFF03F02AFA00F08DFC6A
:1002600003B4FFF7F2FF03BC00F0D0FC094880475D
:1002700009480047FEE7FEE7FEE7FEE7FEE7FEE788
:10028000FEE7FEE7FEE7FEE704480549054A064BA0
:100290007047000059360008890100085005002009
:1002A000500B0020500700205007002053EA020C9A
:1002B00000F069802DE9F04B4FF00006002B1FBFC6
:1002C000B3FA83F503FA05F424FA05F65E4012BF8B
:1002D0001643B2FA82F502FA05F4C5F120051EBFF5
:1002E00022FA05FC44EA0C04203556EA044C4FEA95
:1002F000144418BF641C4FF000084FF000099042EE
:1003000071EB030C39D3002919BFB1FA81F701FA57
:1003100007F6B0FA80F700FA07F6C7F120071EBF0C
:1003200020FA07FC46EA0C062037B6FBF4FCA7EBE4
:100330000507103F07F01F0BCBF120062CFA06F63D
:100340000CFA0BFB44BFB3460026202FA4BF5E4629
:100350004FF0000B5BEA060C08BF4FF0010B19EBE6
:100360000B0948EB0608ABFB027C06FB02CC0BFB3F
:1003700003CCC01B71EB0C01C1E70B4602464146A2
:100380004846BDE8F08B13B5084318BF4FF0FF3067
:100390000146AFF30080BDE81C4070470FB41CB5A8
:1003A000074B06AA7B4469460090059800F0A7FA1F
:1003B0000020694600F0B6FA1CBC5DF814FB000092
:1003C0007D0500002DE9F0474FF0000A89460446FC
:1003D000C0F820A02046E1688847002876D025286C
:1003E00006D0D4E901219047206A401C2062F1E741
:1003F000E168204600258847C4F81CA0064600276F
:10040000C4F818A02A2E09D0304603F011FE38B3E4
:1004100004EB8708303EC8F8186019E059F8041B4F
:10042000204604EB87029161E1688847012F064668
:1004300018D1E069002820DA25F020051DE0D8F861
:10044000180000EB800006EB40003038C8F81800B8
:100450002046E1688847064603F0EAFD0028EED111
:10046000012F0AD02E2E08D12046E16888477F1C34
:100470000646022F45F02005C4DBA069002803DAF8
:10048000404245F00105A061E80701D025F01005C4
:10049000B6B1A6F14100192802D8203645F400650E
:1004A0004A463146204625604D46FFF7BDFE58B10D
:1004B000012806D0ED1D25F0070000F1080989E7A5
:1004C00004E005F1040985E730468AE7206ABDE8C3
:1004D000F0877047704770472DE9FF4F0C461E4666
:1004E0004FF0FF378BB0D2E90001DDF860800A9051
:1004F0008A46C1F30A5505B93D46002108464FF02A
:100500000000BAF1000F00F4400005DA00EB8000B3
:100510004FF4400101EA50004FEA9059B9F1010F40
:1005200000DDB9460A9850EA4A000ED044F6105051
:10053000A5F2FF3545432F14B8F1000F1ED07542C8
:10054000291E1EDDC9F100021CE0B8F1010F4FF0B9
:10055000000001D0302103E0F24305E02154401CAB
:10056000B042FBDB30460022002121540B99C1F838
:100570000880C1E900200FB0BDE8F08FBD1B6D1CE5
:10058000DEE74A4600DA694206A800F05BFA06ABED
:1005900093E8070003AB83E8070050460A9903F08D
:1005A00067F98DE80700A0F500501F380090039808
:1005B000002D0ADD42F21F014A460844002303A928
:1005C0000390684603F0D0FB09E0A0F500504A46CE
:1005D0001F38002303A90390684603F0DAFB8DE877
:1005E00007000004000C03D04FF0FF30410800E08A
:1005F0001046B8F1000F03D00022009215461EE00D
:10060000751E05D400F098F9303262556D1EF9D58B
:10061000B3460122084302D000227F1C04E0207868
:10062000302801D100227F1E002A099784D01DE0C6
:10063000112D07DA00F080F9303262556D1C50EA56
:100640000102F5D1084302D00098C8B10EE00021A4
:10065000681E05E0235C625C63542254401E491C02
:100660008142F7DBAB46A81B401E0990002004F82E
:100670000B000B98099AC0F80880C0E9002B7AE7B4
:1006800011264FF0000857E72DE9F04F8846044641
:10069000D21D22F0070191B0D1E90001CDE90A0194
:1006A00003F0AEFC02460B98C00F01D02D2007E0EE
:1006B0002068810701D52B2002E0202101EAC0003B
:1006C000032A099001D0072A05DB0346414620464C
:1006D00000F078F90BE12078800601D5E06900E0B0
:1006E0000620B8F1650F814606D0B8F1660F18D024
:1006F000B8F1670F70D131E00020B9F1110F00900F
:1007000001DB112301E009F101030AAA01A90CA8E8
:10071000FFF7E2FEDDE90C70002609F101058346D2
:1007200047E001204B4600904FF000470AAA01A97C
:100730000CA8FFF7D1FEDDE90DB00C995D4600264F
:1007400010B909F101000D18B9EB050003D4C0F18F
:10075000FF3609F10105A5EB09002BE0B9F1010F06
:1007600001DA4FF001090020B9F1110F009048465D
:1007700001DD112300E003460AAA01A90CA8FFF736
:10078000ABFEDDE90C704D4600268346207800075D
:100790000AD4AB4500DA5D4601A8012D04DD4119FC
:1007A00011F8011C302907D04F4502DA17F1040F68
:1007B00004DA012082460FE06D1EEEE7002F02DC16
:1007C000ED1B3E4403E0781CA84200DD7D1CB81BF5
:1007D00000F1010A4FF000472078000703D4AA4532
:1007E00001DB4FF0FF3A0021B7F1004F0DF1430854
:1007F0008DF8431024D002202B23002F01DA7F42F2
:100800002D230A21021EA0F1010000DC5FB197FB3D
:10081000F1FC97FBF1F201FB1C7C17460CF1300C4C
:1008200008F801CDEEE7A8F1010003702188090561
:1008300001D5452100E06521A0F1010800F8011C67
:1008400009980FA9A1EB0807FF1D00B1012041196C
:1008500001EBEA70A1693844081A401EA0612078B3
:10086000C00602D42046AFF30080099828B1D4E92D
:1008700001219047206A401C20622078C00622D5C2
:100880002046AFF300801EE0002E04DBB34502DDFE
:1008900001A8805D00E03020D4E901219047206A62
:1008A000401C2062761CAAF101005FEA000A0AD10E
:1008B00000F03EF8C0680168405CD4E9012190472F
:1008C000206A401C2062281EA5F10105DCDC07E03F
:1008D000D4E9012118F8010B9047206A401C2062DE
:1008E000381EA7F10107F3DC2046AFF30080032098
:1008F00011B041E601694A1C02610878704700B5F1
:100900008FB0CDE901310021059105497944CDE948
:10091000031011466846FFF755FD0FB000BD0000FB
:10092000E5FFFFFF0A6802F8010B0A60704700004C
:10093000004870473000002030B5B0F10A0271F174
:1009400000034FEA900E4EEA817EB0EB0E0061EBA1
:1009500091014FEA101E4EEA017E10EB0E0041EBB2
:1009600011114FEA102E4EEA016E10EB0E0041EB12
:1009700011214FEA104E4EEA014E10EB0E0041EBF2
:100980001141401841F100014FEAD00040EA4170A6
:100990004FEAD1014FEA810444EA907410EB8005DC
:1009A00044EB01046D1944EB0404521BA3414FF0C6
:1009B000000348BF0A3200D530BD401C41F10001A0
:1009C00030BD00002DE9F0411F46044603260168B2
:1009D000072A01F4006004DB08B116A505E016A59E
:1009E00003E008B115A500E015A521F01000206076
:1009F000A069C01EA0610FB1401EA0612046AFF3E8
:100A000000804FB1D4E9012138469047206A401C4C
:100A10002062C01C206206E0206AFAE7D4E90121C6
:100A200015F8010B9047761EF8D22046AFF30080F0
:100A3000BDE8F0814E414E006E616E00494E4600A9
:100A4000696E66002DE9F047814616468AB0354842
:100A500078440DC88DE80D0032487844801C03AC02
:100A60000DC884E80D0041F69B300844372190FB07
:100A7000F1F290FBF1F5A5F1800501FB12041B3C9E
:100A800002D56442012000E00020DFF898A08046F3
:100A90000027FA44AAF1BE0A0EE0E0070AD0324667
:100AA000684607EB470101230AEB810103F071F966
:100AB0008DE8070064107F1C002CEED1194F7F4495
:100AC000AE3F19E0E80715D007EB04100DF1180A46
:100AD00090E80E008AE80E00C068F04201D1981933
:100AE00008903246012306A903A803F052F903AB8C
:100AF00083E807006D10641C002DE3D14FF0010363
:100B000032466946B8F1000F03A802D003F02CF971
:100B100001E003F03EF9C9E90001C9F808200AB074
:100B2000BDE8F087D838000000487047100000206A
:100B30007546FFF7F9FFAE4605006946534620F0BB
:100B40000700854618B020B5FFF79EFBBDE82040A2
:100B50004FF000064FF000074FF000084FF0000B79
:100B6000AC46ACE8C009ACE8C009ACE8C009ACE8E8
:100B7000C00921F007018D46704710B50446AFF358
:100B800000802046BDE81040FFF76ABB000000006F
:100B900030B44FF0013C50F8042B51F8043BCCFA30
:100BA00052F4D51A20D1FCB950F8042B51F8043B6B
:100BB000CCFA52F4D51A17D1B4B950F8042B51F825
:100BC000043BCCFA52F4D51A0ED16CB950F8042B70
:100BD00051F8043BCCFA52F4D51A05D1002CDAD0E6
:100BE00030BC4FF00000704729BAB1FA81F111F022
:100BF0001801D1F120008440F2D1CA40CB4012F05C
:100C0000FF0213F0FF0330BCD01A704701491820CF
:100C1000ABBEFEE72600020070470000FEE70000C2
:100C20007047000072B600BFFEE7000070B581B0EB
:100C30000022009290F83C20012A03D102210846AC
:100C400001B070BD0E6801220A2E80F83C2009D345
:100C5000B2B25200D0F800E012FA86F21E3A0EF15B
:100C60000C0305E0D0F800E006EB46020EF110039D
:100C70004FF0070C1D680CFA02F4A5431D608D6847
:100C80001C6805FA02F222431A60496806290FD847
:100C900001EB81014A1F71461F2351F8345F9340D5
:100CA00025EA03030B60B3B203FA02F214E000BFBB
:100CB00001EB81030C29B2B204D8714651F8304FD0
:100CC000233B03E0714651F82C4F413B1F259D40CB
:100CD00024EA05059A400D600B6842F2043CC4F218
:100CE000010C1A43ACF541739E450A603BD1122EAC
:100CF00006D1DCF8001041F48001CCF8001032E09D
:100D000026F0010110292ED1DCF80010102E41F43C
:100D10000001CCF8001026D140F20801C2F2000117
:100D200009684DF68362C4F21B32A1FB0212910CDA
:100D300001EB8101490000910099A1B100990139AD
:100D40000091009979B1009901390091009951B150
:100D5000009901390091009929B100990139009158
:100D600000990029EAD1002180F83C10084601B022
:100D700070BD00000068C06C70470000002804BF10
:100D80000120704710B50446006C00283ED0206C4E
:100D9000C00645D4206C41F202118843023042F271
:100DA00004312064C4F20101086820F44030086076
:100DB0000A6894E809101A43D4F810E00A60416800
:100DC000012321F4807141604168C0F6007341EA5B
:100DD0000E214160416821F040714160416841EA63
:100DE0000C014160816821F400618160E1688268E2
:100DF00011438160A16A8268994222F07062826028
:100E0000826813D122F0405119E000BF204600F063
:100E100065F80020606484F83C00206CC006B9D5F9
:100E20000120002184F83C1010BD00BF11438160F7
:100E3000816821F040518160E16A826811438160DC
:100E4000816821F0020181608168227E94F820305F
:100E500041EA42018160416883B141F4006141602F
:100E600041684EF2000221F460414160616ACFF6B0
:100E7000FF72436802EB4131194301E021F4006144
:100E80004160C16A40F2000C21F47001C162E26964
:100E90006169CFF6F07CC36A0CEB02521A43C2625E
:100EA000826822F40072826094F83020836843EAFA
:100EB00042228260826822F480628260826842EA12
:100EC0008121816000206064216C012262F30101B4
:100ED0002164002184F83C1010BD000080B586B06C
:100EE00042F200010068C4F201010022884205922A
:100EF000049201D006B080BD43F630000092C4F2E7
:100F00000200436943F480734361436903F48073CF
:100F10000093009B0092036843F0010303600068A4
:100F200000F0010000900098012001900320CDE91D
:100F3000020201F5604001A900F070F906B080BD21
:100F400010B581B00021009190F83C10012903D127
:100F5000022001B010BD00BF0468012180F83C10E0
:100F6000214651F8083FDB0729D10B684DF6836213
:100F700043F001030B6040F20803C2F200031B6858
:100F8000C4F21B32A3FB02239A0C02EB4202009232
:100F9000009AA2B1009A013A0092009A7AB1009A9E
:100FA000013A0092009A52B1009A013A0092009AD6
:100FB0002AB1009A013A0092009A002AEAD10A68FE
:100FC000036CD2070CD143F01001016400F144011D
:100FD00001200A6810430860002001B010BD00BF66
:100FE00040F2017223EA020202F580720264626832
:100FF000520504D5026C012363F30D320264026CC6
:101000004FF0000E0023D20444BF426C22F00603CE
:1010100042F2043C436480F83CE06FF02200C4F2EA
:10102000010C2060DCF80000C0060DD0ACF541706A
:1010300084422BD14FF60450CFF6FF705CF80000CD
:1010400010F0405F22D125E042F20000C4F201001E
:10105000844217D042F20020C4F2010084420DD035
:1010600042F20010C4F2010084420FD1DCF800000B
:10107000C00607D0ACF58270844207D1DCF80000CE
:10108000C00603D4086810F0405F03D0002001B010
:1010900010BD00BF4FF080409BE7000000284FF0DC
:1010A000010318BF002901D1184670474379012B6D
:1010B0004FF00203F8D010B50371036802F0100E70
:1010C000D3F800C0D1E9001440F6FE7202FA0EF225
:1010D00021432CEA020201FA0EF111431960C021EA
:1010E0001A6801FA0EF122EA0101196001210023B8
:1010F00001714371BDE8104018467047002804BFD5
:101100000120704710B50446007920B900206071B5
:10111000204600F007F80220207100200121206104
:10112000217110BD80B586B047F200410068C4F25D
:101130000001002288420592049201D006B080BDD1
:1011400043F630000092C4F20200036943F00053FA
:101150000361036903F000530093009B009203684E
:1011600043F001030360006800F001000090009864
:10117000102001900320CDE9020201F5C63001A93B
:1011800000F04CF806B080BD81B04FF0000CCDF8F7
:1011900000C068B10068002900900098104414BF96
:1011A00014300830009000980360002001B07047B0
:1011B000012001B070470000002804BF01207047E3
:1011C0004279012A4FF0020226D010B5027102685E
:1011D00001F0100E4FF0010C14680CFA0EF32343CB
:1011E0001360D2F800C049B13C230CF4701103FA2B
:1011F0000EF399420AD1022105E000BF0CF03C0138
:101200003C2903D101215368194351600121002277
:1012100001714271BDE81040104670472DE9F04F52
:1012200082B000F13E4707F1FF77860546EA97272F
:1012300041F60046C4F20206082243F6004EB042D0
:1012400008BF0722C4F2010E072F38BF3A46002616
:1012500000274FF00008009209E000BF08F10108E4
:101260000237B8F1100F06F1040600F0A3800D68F4
:10127000012202FA08F415EA0409EFD0D1F804B00B
:1012800003220BF0030CACF10105BA40012D6FEA0B
:10129000020A0FD88268CD6802EA0A02BD402A43DA
:1012A00082604268A243CBF3001404FA08F422439C
:1012B000426005E0BCF1030F02D14FF0030C1EE0C9
:1012C000C2688C6802EA0A02BC402243BCF1020FE9
:1012D000C26014D16FF0030202EA58020244D2F84D
:1012E00020C006F01C040F230D69A3402CEA030361
:1012F000A5402B431362D1F804B00BF0030C026835
:101300000CFA07F302EA0A021A431BF4403F026098
:10131000A4D0002243F644030192C4F202031A68E7
:101320004FF6084C42F480421A601A68CFF6FF7CF0
:1013300002F480420192019A28F00302724452F8AA
:101340000C3006F00C050F24AC40A343009C04FABB
:1013500005F52B4342F80C30DEF808204B6842EAD2
:10136000090543F60C4CDC0258BF22EA0905CEF809
:101370000850C4F2010CDCF800209C0242EA090586
:1013800058BF22EA0905CCF80050DEF804209C037F
:1013900042EA090558BF22EA0905CEF80450DEF8F2
:1013A0000020DB0342EA090558BF22EA0905CEF80E
:1013B000005053E702B0BDE8F08F0000002A08BFDC
:1013C000090481617047000040F24C50C2F20000F5
:1013D0000068704740F2000040F24C51C2F2000039
:1013E000C2F2000100780A681044086070470000EB
:1013F00080B543F60040C4F20200016841F4007178
:101400000160016841F480610160016841F480710C
:101410000160032000F074F80F2000F005F800F0E0
:1014200027F8002080BD000070B540F20006C2F22F
:10143000000640F208013278C2F200014FF47A73DC
:101440000968B3FBF2F20446B1FBF2F1084600F082
:1014500027FB0F2C4FF0010508D838B94FF0FF30AB
:1014600021460022002500F01FF87460284670BD58
:1014700082B0002043F640010190C4F202014A68A4
:1014800042F480424A604A6802F480420192019A22
:101490000090086840F080500860086800F08050B4
:1014A0000090009802B0704710B54EF60C5CCEF27A
:1014B000000CDCF80030C3F3022E8EF00704042C7D
:1014C00028BF0424BEF103034FF0FF3E0EFA04F4DC
:1014D00038BF0023A14399400EFA03F39A43114306
:1014E00000F00F0200F160430901043A03F5644380
:1014F0006244002848BF02F10C03197010BD0000BF
:101500004EF60C51CEF200010A684FF6FF031A4066
:1015100060F30A2242F0806040F0FD70086070477E
:10152000002804BF012070472DE9F04143F6080868
:10153000C4F202080446D8F8F8030D4600F007008C
:10154000884207D288F8F853D8F8F80300F007006B
:10155000A84277D12068810717D5410705D5D8F86B
:10156000001041F4E051C8F80010010705D5D8F883
:10157000001041F46041C8F80010D8F80010A268CB
:1015800021F0F0011143C8F80010C00740D1D8F88D
:10159000F80300F00700A84207D988F8F853D8F8F4
:1015A000F80300F00700A8424CD12068410707D596
:1015B000D8F80010E26821F4E0511143C8F8001097
:1015C000000708D5D8F80000216920F4604040EAFF
:1015D000C100C8F8000000F055F8D8F8001044F237
:1015E0004432C1F30311C0F60002515C40F208021C
:1015F00020FA01F140F20400C2F200000068C2F2D9
:1016000000021160FFF710FF0020BDE8F08100BF6D
:101610006068811E022907D258F8081C89015CBF46
:101620000120BDE8F08111E0012807D158F8081C1D
:1016300089035CBF0120BDE8F08107E058F8081C71
:10164000890703D40120BDE8F08100BFD8F800105D
:1016500021F003010843C8F80000FFF7B5FE064675
:1016600041F28837D8F80000616800F00C00B0EB58
:10167000810F8CD0FFF7A8FE801BB842F2D903205F
:10168000BDE8F08110B543F60404C4F202046068BA
:1016900000F00C0142F200400829C0F2F40007D02B
:1016A000042918BF10BD41F20020C0F27A0010BD1D
:1016B000216801F03F02216823684902C3F38811C1
:1016C00006D4A1FB00010023FEF7F0FD07E000BFF8
:1016D00041F20020C0F27A004843B0FBF2F02168EA
:1016E0000222C1F3014102EB4101B0FBF1F010BD58
:1016F000002804BF012070472DE9F04182B0044664
:10170000007843F60006C007C4F202060CD0B068A9
:1017100000F00C00042840F081803068800303D57D
:101720006068002800F06A81207880071BD5B068C7
:1017300010F00C0F09D0B06800F00C00082840F041
:1017400087807068400200F183803068800703D58D
:10175000E068012840F052813068216920F0F800EB
:1017600040EAC10030602078000713D42078400799
:101770002AD4A569002D00F03C81B06800F00C006F
:10178000082840F0A180012D40F01081012002B016
:10179000BDE8F0816069002840F20000C4F24720F3
:1017A00000F07E800121C0F8801EFFF70DFE054687
:1017B000706F8007DAD4FFF707FE401B0228F7D9C5
:1017C000032002B0BDE8F081306C5FEAC0080AD4A3
:1017D00000200190306C40F080503064306C00F09C
:1017E00080500190019847F20007C4F20007386862
:1017F000C00547D4386840F480703860FFF7E4FDD6
:10180000054600BF3868C0053CD4FFF7DDFD401B2E
:101810000228F7D9032002B0BDE8F081B06800F0DB
:101820000C00082803D1706840023FF576AF60686D
:10183000B0F5803F07D0B0F5A02F40F09B80306816
:1018400040F480203060306840F4803030609BE0AD
:10185000E06800285CD00020C4F24720012101602C
:10186000FFF7B2FD054600BF306880073FF574AF53
:10187000FFF7AAFD401B0228F6D9032002B0BDE8FD
:10188000F08100BFA068012805D0052854D1306F31
:1018900040F004003067306F40F00100306755E0E1
:1018A0000021C0F8801EFFF78FFD0546706F80078E
:1018B0007FF55CAFFFF788FD401B0228F6D90320B7
:1018C00002B0BDE8F08100BF0027C4F24727002026
:1018D0003866FFF779FD022D05460DD1306880018D
:1018E00040F19080FFF770FD401B02284FF003008D
:1018F000F4D902B0BDE8F0813068800179D5FFF7F6
:1019000063FD401B02284FF00300F5D9F1E700BF4B
:101910000020C4F2472000210160FFF755FD054675
:10192000306880077FF51FAFFFF74EFD401B022890
:101930004FF00300F4D9DCE7316F002821F00101FA
:101940003167316F21F0040131677DD0FFF73CFD35
:10195000054641F2883700BF306F800700F186806E
:10196000FFF732FD401BB842F6D9032002B0BDE8B4
:10197000F08100BF3168002821F480313160316886
:1019800021F4802131607BD0FFF71EFD054600BFAA
:10199000306880033FF5C8AEFFF716FD401B642892
:1019A000F6D9032002B0BDE8F08100BF7068E1699C
:1019B00000F480028A4221D1216A00F03F028A426B
:1019C0001CD147F6C071626A0140B1EB821F15D18C
:1019D000A16A4FF6FF73C903994300F44032A1F5A1
:1019E00080318A420AD1E16A00F07060B0EB016F89
:1019F00004D1002002B0BDE8F08100BF012002B098
:101A0000BDE8F08104F11C052FCD084340EA8210A7
:101A1000D9034FF6FF729143A1F5803140EA05608A
:101A20000843706001203866FFF7CEFC044600BF13
:101A300030688001DDD4FFF7C7FC001B02284FF09F
:101A40000300F5D955E700BFFFF7BEFC054641F29C
:101A5000883700BF306F800708D5FFF7B5FC401B03
:101A6000B8424FF00300F5D943E700BFB8F1000FCB
:101A70003FF57FAE306C20F08050306479E600BFD7
:101A8000FFF7A2FC054600BF306880037FF54CAE2F
:101A9000FFF79AFC401B64284FF00300F4D928E7B5
:101AA000411E0020B0EB116F1CBF012070474EF2A9
:101AB0001002CEF2000251604EF62351CEF2000128
:101AC000F0230B700721906011607047FEE7000063
:101AD000F0B581B040F20044C4F202044EF21805A1
:101AE000204680210122CEF20005FFF767FC204648
:101AF00040210122FFF762FC40F20C06C2F2000610
:101B000055F8040C31682F6801EB8101490000226F
:101B100008E000BF3A44D21ABB4228BF02448A42BE
:101B20001F460DD22B68BB42F4D12B68BB42F1D1CA
:101B30002B68BB42EED12B68BB42F3D0EAE700BF73
:101B40002046802100220027FFF738FC55F8040CBE
:101B500031682A6801EB8101490007E01744FF1A48
:101B6000934228BF07448F421A460DD22B689342F6
:101B7000F4D12B689342F1D12B689342EED12B68BC
:101B80009342F3D0EAE700BF204640210022002420
:101B9000FFF714FC55F8040C31682A6801EB810149
:101BA000490007E01719FC1A934228BF04448C42ED
:101BB0001A460DD22B689342F4D12B689342F1D18F
:101BC0002B689342EED12B689342F3D0EAE700BF33
:101BD00001B0F0BDF0B581B040F20047C4F2020799
:101BE0004EF21805384680210122CEF20005FFF79B
:101BF000E5FB40F20C06C2F2000655F8040C316811
:101C00002C6801EB81014900002207E02244D21A2E
:101C1000A34228BF02448A421C460DD22B68A3422D
:101C2000F4D12B68A342F1D12B68A342EED12B68EB
:101C3000A342F3D0EAE700BF384640210122FFF774
:101C4000BDFB55F8040C31682C6801EB810149009B
:101C5000002207E02244D21AA34228BF02448A424B
:101C60001C460DD22B68A342F4D12B68A342F1D1BC
:101C70002B68A342EED12B68A342F3D0EAE700BF62
:101C80003846402100220024FFF798FB55F8040C49
:101C900031682A6801EB8101490007E01719FC1A35
:101CA000934228BF04448C421A460DD22B689342BB
:101CB000F4D12B689342F1D12B689342EED12B687B
:101CC0009342F3D0EAE700BF01B0F0BDB0B584B0F5
:101CD00040F2F04042F2000101230024C2F2000071
:101CE000C4F20101C0F60073012503944FF4803261
:101CF000047680F82040C0E90A34C56180F830409D
:101D000080E81600C0E903444561FFF737F8002872
:101D100018BFFEF787FF40F2F040C2F200006946AC
:101D2000CDE900450294FEF781FF002818BFFEF7B9
:101D300079FF04B0B0BD000080B582B00020CDE9CD
:101D4000000040F2385047F20041C2F20000C4F2F5
:101D500000010160FFF7D2F9002818BFFEF762FF0B
:101D600040F23850C2F2000069460022FFF796F9AF
:101D7000002818BFFEF756FF02B080BD70B586B0D0
:101D8000002043F6300105900090C4F202010A6879
:101D900040F2004442F080020A600A68C4F2020481
:101DA00002F080020092009A00900A68C02542F07A
:101DB00001020A600A68012602F001020092009AFC
:101DC00000900868012240F0020008600868C02105
:101DD00000F00200009000982046FFF7EFFA112073
:101DE000CDE902060320049001A920460195FFF7E2
:101DF00015FA06B070BD0000FEE70000FEE7000027
:101E00004FF60040CFF6FF7040F2700CC2F2000CAB
:101E1000002203460CEB030113F5807381F80024C4
:101E200081F8082481F8102481F8182481F82024EE
:101E300081F8282481F8302481F8382481F840245E
:101E400081F8482481F8502481F8582481F86024CE
:101E500081F8682481F8702481F8782481F880243E
:101E600081F8882481F8902481F8982481F8A024AE
:101E700081F8A82481F8B02481F8B82481F8C0241E
:101E800081F8C82481F8D02481F8D82481F8E0248E
:101E900081F8E82481F8F02481F8F824BAD10022EE
:101EA000034600BF0CEB030113F5807381F8012496
:101EB00081F8092481F8112481F8192481F821245A
:101EC00081F8292481F8312481F8392481F84124CA
:101ED00081F8492481F8512481F8592481F861243A
:101EE00081F8692481F8712481F8792481F88124AA
:101EF00081F8892481F8912481F8992481F8A1241A
:101F000081F8A92481F8B12481F8B92481F8C12489
:101F100081F8C92481F8D12481F8D92481F8E124F9
:101F200081F8E92481F8F12481F8F924BAD100225A
:101F3000034600BF0CEB030113F5807381F8022404
:101F400081F80A2481F8122481F81A2481F82224C5
:101F500081F82A2481F8322481F83A2481F8422435
:101F600081F84A2481F8522481F85A2481F86224A5
:101F700081F86A2481F8722481F87A2481F8822415
:101F800081F88A2481F8922481F89A2481F8A22485
:101F900081F8AA2481F8B22481F8BA2481F8C224F5
:101FA00081F8CA2481F8D22481F8DA2481F8E22465
:101FB00081F8EA2481F8F22481F8FA24BAD10022C7
:101FC000034600BF0CEB030113F5807381F8032473
:101FD00081F80B2481F8132481F81B2481F8232431
:101FE00081F82B2481F8332481F83B2481F84324A1
:101FF00081F84B2481F8532481F85B2481F8632411
:1020000081F86B2481F8732481F87B2481F8832480
:1020100081F88B2481F8932481F89B2481F8A324F0
:1020200081F8AB2481F8B32481F8BB2481F8C32460
:1020300081F8CB2481F8D32481F8DB2481F8E324D0
:1020400081F8EB2481F8F32481F8FB24BAD1002233
:10205000034600BF0CEB030113F5807381F80424E1
:1020600081F80C2481F8142481F81C2481F824249C
:1020700081F82C2481F8342481F83C2481F844240C
:1020800081F84C2481F8542481F85C2481F864247C
:1020900081F86C2481F8742481F87C2481F88424EC
:1020A00081F88C2481F8942481F89C2481F8A4245C
:1020B00081F8AC2481F8B42481F8BC2481F8C424CC
:1020C00081F8CC2481F8D42481F8DC2481F8E4243C
:1020D00081F8EC2481F8F42481F8FC24BAD10022A0
:1020E000034600BF0CEB030113F5807381F8052450
:1020F00081F80D2481F8152481F81D2481F8252408
:1021000081F82D2481F8352481F83D2481F8452477
:1021100081F84D2481F8552481F85D2481F86524E7
:1021200081F86D2481F8752481F87D2481F8852457
:1021300081F88D2481F8952481F89D2481F8A524C7
:1021400081F8AD2481F8B52481F8BD2481F8C52437
:1021500081F8CD2481F8D52481F8DD2481F8E524A7
:1021600081F8ED2481F8F52481F8FD24BAD100220C
:10217000034600BF0CEB030113F5807381F80624BE
:1021800081F80E2481F8162481F81E2481F8262473
:1021900081F82E2481F8362481F83E2481F84624E3
:1021A00081F84E2481F8562481F85E2481F8662453
:1021B00081F86E2481F8762481F87E2481F88624C3
:1021C00081F88E2481F8962481F89E2481F8A62433
:1021D00081F8AE2481F8B62481F8BE2481F8C624A3
:1021E00081F8CE2481F8D62481F8DE2481F8E62413
:1021F00081F8EE2481F8F62481F8FE24BAD1002279
:102200000CEB000110F5807081F8072481F80F2491
:1022100081F8172481F81F2481F8272481F82F24BE
:1022200081F8372481F83F2481F8472481F84F242E
:1022300081F8572481F85F2481F8672481F86F249E
:1022400081F8772481F87F2481F8872481F88F240E
:1022500081F8972481F89F2481F8A72481F8AF247E
:1022600081F8B72481F8BF2481F8C72481F8CF24EE
:1022700081F8D72481F8DF2481F8E72481F8EF245E
:1022800081F8F72481F8FF24BAD100F0AFBA00003A
:10229000B0B54FF60044AE200021CFF6FF74002504
:1022A00001F0BEF80020002101F0BAF81020002152
:1022B00001F0B6F84020002101F0B2F881200021A1
:1022C00001F0AEF8CF20002101F0AAF8A1200021F2
:1022D00001F0A6F8C820002101F0A2F8A6200021F4
:1022E00001F09EF8A820002101F09AF83F2000217B
:1022F00001F096F8D320002101F092F8002000218F
:1023000001F08EF8D520002101F08AF8802000210C
:1023100001F086F8D920002101F082F8F120002197
:1023200001F07EF8DA20002101F07AF81220002175
:1023300001F076F8DB20002101F072F84020002146
:1023400001F06EF82020002101F06AF8022000213F
:1023500001F066F88D20002101F062F814200021C0
:1023600001F05EF8A420002101F05AF8A620002117
:1023700001F056F840F27000C2F20000214600BFA2
:10238000421811F5807182F8005482F8085482F8DE
:10239000105482F8185482F8205482F8285482F895
:1023A000305482F8385482F8405482F8485482F805
:1023B000505482F8585482F8605482F8685482F875
:1023C000705482F8785482F8805482F8885482F8E5
:1023D000905482F8985482F8A05482F8A85482F855
:1023E000B05482F8B85482F8C05482F8C85482F8C5
:1023F000D05482F8D85482F8E05482F8E85482F835
:10240000F05482F8F854BBD100212246831812F50B
:10241000807283F8011483F8091483F8111483F887
:10242000191483F8211483F8291483F8311483F8DC
:10243000391483F8411483F8491483F8511483F84C
:10244000591483F8611483F8691483F8711483F8BC
:10245000791483F8811483F8891483F8911483F82C
:10246000991483F8A11483F8A91483F8B11483F89C
:10247000B91483F8C11483F8C91483F8D11483F80C
:10248000D91483F8E11483F8E91483F8F11483F87C
:10249000F914BBD100212246831812F5807283F80B
:1024A000021483F80A1483F8121483F81A1483F8B8
:1024B000221483F82A1483F8321483F83A1483F828
:1024C000421483F84A1483F8521483F85A1483F898
:1024D000621483F86A1483F8721483F87A1483F808
:1024E000821483F88A1483F8921483F89A1483F878
:1024F000A21483F8AA1483F8B21483F8BA1483F8E8
:10250000C21483F8CA1483F8D21483F8DA1483F857
:10251000E21483F8EA1483F8F21483F8FA14BBD1B6
:1025200000212246831812F5807283F8031483F881
:102530000B1483F8131483F81B1483F8231483F803
:102540002B1483F8331483F83B1483F8431483F873
:102550004B1483F8531483F85B1483F8631483F8E3
:102560006B1483F8731483F87B1483F8831483F853
:102570008B1483F8931483F89B1483F8A31483F8C3
:10258000AB1483F8B31483F8BB1483F8C31483F833
:10259000CB1483F8D31483F8DB1483F8E31483F8A3
:1025A000EB1483F8F31483F8FB14BBD1002122460B
:1025B000831812F5807283F8041483F80C1483F8DE
:1025C000141483F81C1483F8241483F82C1483F84F
:1025D000341483F83C1483F8441483F84C1483F8BF
:1025E000541483F85C1483F8641483F86C1483F82F
:1025F000741483F87C1483F8841483F88C1483F89F
:10260000941483F89C1483F8A41483F8AC1483F80E
:10261000B41483F8BC1483F8C41483F8CC1483F87E
:10262000D41483F8DC1483F8E41483F8EC1483F8EE
:10263000F41483F8FC14BBD100212246831812F550
:10264000807283F8051483F80D1483F8151483F849
:102650001D1483F8251483F82D1483F8351483F89A
:102660003D1483F8451483F84D1483F8551483F80A
:102670005D1483F8651483F86D1483F8751483F87A
:102680007D1483F8851483F88D1483F8951483F8EA
:102690009D1483F8A51483F8AD1483F8B51483F85A
:1026A000BD1483F8C51483F8CD1483F8D51483F8CA
:1026B000DD1483F8E51483F8ED1483F8F51483F83A
:1026C000FD14BBD100212246831812F5807283F8D5
:1026D000061483F80E1483F8161483F81E1483F876
:1026E000261483F82E1483F8361483F83E1483F8E6
:1026F000461483F84E1483F8561483F85E1483F856
:10270000661483F86E1483F8761483F87E1483F8C5
:10271000861483F88E1483F8961483F89E1483F835
:10272000A61483F8AE1483F8B61483F8BE1483F8A5
:10273000C61483F8CE1483F8D61483F8DE1483F815
:10274000E61483F8EE1483F8F61483F8FE14BBD174
:10275000002100BF021914F5807482F8071482F872
:102760000F1482F8171482F81F1482F8271482F8C5
:102770002F1482F8371482F83F1482F8471482F835
:102780004F1482F8571482F85F1482F8671482F8A5
:102790006F1482F8771482F87F1482F8871482F815
:1027A0008F1482F8971482F89F1482F8A71482F885
:1027B000AF1482F8B71482F8BF1482F8C71482F8F5
:1027C000CF1482F8D71482F8DF1482F8E71482F865
:1027D000EF1482F8F71482F8FF14BBD100F006F86A
:1027E000AF200021BDE8B04000F01ABE2DE9F04F47
:1027F00081B04EF2180540F2004840F20C0BCEF2C8
:1028000000054FF00009C4F20208C2F2000B0AE012
:10281000404680210122FEF7D1FD09F10109B9F1FD
:10282000080F00F02381A9F15000C0B200214FF041
:10283000000A00F0F5FD0020002100F0F1FD10205D
:10284000002100F0EDFDFFF743F9782000F042FE93
:10285000FFF7C0F9402000F03DFEFFF7BBF905E0AF
:102860000AF1010ABAF1800F00F0D48040F2700042
:10287000C2F2000000EBCA0010F80960002709E06E
:10288000404640210022FEF799FD7600072F07F110
:1028900001074BD2F0B2C20940468021FEF78EFDFF
:1028A00055F8040CDBF800102C6801EB810149009D
:1028B000002207E02244D21AA34228BF02448A42DF
:1028C0001C460DD22B68A342F4D12B68A342F1D150
:1028D0002B68A342EED12B68A342F3D0EAE700BFF6
:1028E000404640210122FEF769FD55F8040CDBF853
:1028F00000102C6801EB81014900002208E000BFB4
:102900002244D21AA34228BF02448A421C46B7D2AC
:102910002B68A342F4D12B68A342F1D12B68A342C8
:10292000EED12B68A342F3D0EAE700BF40468021F6
:102930000122FEF743FD55F8040CDBF800102F6868
:1029400001EB81014900002208E000BF3A44D21A9D
:10295000BB4228BF02448A421F460DD22B68BB42AD
:10296000F4D12B68BB42F1D12B68BB42EED12B686E
:10297000BB42F3D0EAE700BF404640210122FEF708
:102980001DFD55F8040CDBF800102F6801EB8101E8
:102990004900002208E000BF3A44D21ABB4228BFD7
:1029A00002448A421F460DD22B68BB42F4D12B68E9
:1029B000BB42F1D12B68BB42EED12B68BB42F3D0B6
:1029C000EAE700BF4046402100220026FEF7F6FC61
:1029D00055F8040CDBF800102A6801EB810149006E
:1029E0000AE000BF9719FE1A934228BF06448E42A0
:1029F0001A46BFF435AF00BF2B689342F2D12B6863
:102A00009342EFD12B689342ECD12B689342F3D0E1
:102A1000E8E700BF4046802100220026FEF7CEFCFA
:102A2000404640210122FEF7C9FC55F8040CDBF8B2
:102A300000102A6801EB8101490009E09719FE1A8C
:102A4000934228BF06448E421A46BFF4E1AE00BF4F
:102A50002B689342F2D12B689342EFD12B689342BB
:102A6000ECD12B689342F3D0E8E700BF01B0BDE89A
:102A7000F08F00002DE9F04F91B01A9D082B84468D
:102A800007460E900F9340F0FB80203A002DD4B201
:102A900000F0E68101F00702012001F1010E00FAC9
:102AA00002F20EF007030E9200FA03F28B1C03F001
:102AB00007070D9200FA07F2CF1C07F0070601F195
:102AC00004080C9200FA06F208F0070501F1050A65
:102AD0000B9200FA05F20AF007050A9200FA05F2D5
:102AE00001F1060B09920BF00702CE1D00FA02F964
:102AF00006F0070200FA02F544F25C7204EB4400AF
:102B0000C0F6000202EB400010900E985FFA88F4C5
:102B1000C04307900D985FFA8EF2C04306900C9860
:102B20004FEAD40EC04305900B985FFA8AF4C04375
:102B300004900A984FEAD408C043039009985FFABA
:102B40008BF4C043DBB2FFB24FEAD40AF4B2029076
:102B50006FEA0900C908D208DB08FF084FEAD40B66
:102B6000CDF82090CDE90050E8434FF000090F90D8
:102B70000EE000BF16F80B400F98044009F1010960
:102B8000B9F1060F0CF1010C06F80B4000F0588269
:102B900010985FFA8CF610F8095040F27000C2F2FB
:102BA0000000EC0700EBC60632D1745C07980440C5
:102BB0007454AC0732D5B45C0D980443B4546C071C
:102BC00032D5F45C0C980443F4542C0732D5F45DF0
:102BD0000B980443F455EC0632D516F80E400A98CB
:102BE000044306F80E40AC0632D516F808400998A2
:102BF000044306F808406C0632D516F80A400898D7
:102C0000044306F80A406CB2B4F1FF3FB2DC32E094
:102C1000745C0E9804437454AC07CCD4B45C06982E
:102C20000440B4546C07CCD4F45C05980440F454CC
:102C30002C07CCD4F45D04980440F455EC06CCD4B5
:102C400016F80E400398044006F80E40AC06CCD4AB
:102C500016F808400298044006F808406C06CCD4E8
:102C600016F80A400198044006F80A406CB2B4F124
:102C7000FF3F3FF77FAF16F80B40009804437DE716
:102C8000DC0801275E0718BF07EBD304580844434C
:102C90005FFA84FEBEF1000F0D9000F0D181203A62
:102CA000002DD4B200F0E080182B0C9400F2C88103
:102CB000012041F200029840C0F20112104200F0DF
:102CC000BF810C9C44F6841204EB4400C0F6000261
:102CD00002EB800244F6F850C0F60000002500EB3D
:102CE000041067464FF001090B90A8E00B984219B9
:102CF00040F27006F8B2CBB2C2F20006DB0806EB77
:102D0000C00A01F007041AF8030092F9002009FA3A
:102D100004F440EA04085FEAC27B08BF20EA040822
:102D2000481C0AF80380C3B2DB0800F007001AF859
:102D3000034009FA00F044EA0006A846950758BF88
:102D400024EA0006881C0AF80360C3B2DB0800F01E
:102D500007001AF8034009FA00F044EA0005560794
:102D600058BF24EA0005C81C0AF80350C3B2DB08A8
:102D700000F007001AF8034009FA00F044EA0005E1
:102D8000160758BF24EA0005081D0AF80350C3B20D
:102D9000DB0800F007001AF8034009FA00F044EAE3
:102DA0000005D60658BF24EA0005481D0AF803505E
:102DB000C3B2DB0800F007001AF8034009FA00F07C
:102DC00044EA0005960658BF24EA0005881D0AF863
:102DD0000350C3B2DB0800F007001AF8034009FAF9
:102DE00000F044EA0005560658BF24EA0005C81D55
:102DF0000AF80350C3B2DB0800F007001AF80340DA
:102E000009FA00F0002A24EA000248BF44EA00025E
:102E100001370AF80320F8B20D9AA0EB0C0090429B
:102E20000E9804BF07460831109A45460F9B08F1DB
:102E30000105BEF1010E02F1010200F00181102B2B
:102E400010923FF453AF0C2B3FF452AF0C9845F265
:102E5000E83200EBC000C0F6000202EB800046E75B
:102E60004FF0060E04200D9045F2E83504EBC40245
:102E7000C0F6000505EB820844F25C7204EB4400E6
:102E8000C0F6000244F6F8550B9002EB4000C0F685
:102E9000000500260C9005EB04100A9007E000BF27
:102EA0000136BEF1010E08F1010800F0C980082BBF
:102EB00002D10C9813E000BF0C2B05D0102B0DD0C5
:102EC000182B45460CD0BBE00B9844F68412C0F694
:102ED000000202EB8005354402E000BF0A98851924
:102EE00040F2700095F900B05FFA8CF5CFB2C2F2F3
:102EF0000000FF0800EBC50901F0070A19F80750A8
:102F0000CDF840C04FF0010C0CFA0AF25FEACB702A
:102F100025EA020401F101000F9B08BF45EA020403
:102F2000C2B209F80740D20800F0070019F80240C1
:102F30000CFA00F024EA00055FEA8B7758BF44EAF8
:102F40000005881C09F80250C2B2D20800F0070040
:102F500019F802400CFA00F024EA00055FEA4B770A
:102F600058BF44EA0005C81C09F80250C2B2D20892
:102F700000F0070019F802400CFA00F024EA0005FE
:102F80005FEA0B7758BF44EA0005081D09F80250B4
:102F9000C2B2D20800F0070019F802400CFA00F0A3
:102FA00024EA00055FEACB6758BF44EA0005481DE4
:102FB00009F80250C2B2D20800F0070019F8024026
:102FC0000CFA00F024EA00055FEA8B6758BF44EA78
:102FD0000005881D09F80250C2B2D20800F00700AF
:102FE00019F802400CFA00F024EA00055FEA4B678A
:102FF00058BF44EA0005C81D09F80250C2B2D20801
:1030000000F0070019F802400CFA00F0DDF840C0AB
:1030100044EA0005BBF1000F48BF24EA0005082B75
:103020000CF1010C09F802503FF43AAF0E9A5FFA26
:103030008CF00D9C801AA04204BF944608312FE703
:1030400011B0BDE8F08F00002DE9F04F84B0DF082B
:1030500001265D0718BF06EBD30707FB03FCBCF195
:10306000000F0293019000F0AD810298A0F11007CB
:10307000C7F3C40747EA4017F8B2062800F2A28156
:103080000124844014F0470F00F09C810D9C0090B7
:10309000002C00F0CF8044F25434C0F60004019DAF
:1030A00004EB421B4FF0000EADE000BF44F2DC40E9
:1030B000C0F6000000EB0E0740F27002E8B2CBB29F
:1030C000C2F20002DB0802EBC00801F0070618F8A4
:1030D00003004FF0010C97F900700CFA06F640EA75
:1030E00006095FEAC77A08BF20EA0609481C08F803
:1030F0000390C3B2DB0800F0070018F803600CFA75
:1031000000F046EA0002BC0758BF26EA0002881C0D
:1031100008F80320C2B2D20800F0070018F8023005
:103120000CFA00F043EA00047E0758BF23EA0004CB
:10313000C81C08F80240C2B2D20800F0070018F814
:1031400002300CFA00F043EA00043E0758BF23EABD
:103150000004081D08F80240C2B2D20800F00700BF
:1031600018F802300CFA00F043EA0004FE0658BFDB
:1031700023EA0004481D08F80240C2B2D20800F059
:10318000070018F802300CFA00F043EA0004BE060B
:1031900058BF23EA0004881D08F80240C2B2D208D2
:1031A00000F0070018F802300CFA00F043EA0004BF
:1031B0007E0658BF23EA0004C81D08F80240C2B2C8
:1031C000D20800F0070018F802300CFA00F023EAE9
:1031D0000004002F48BF43EA00040135019B08F8B2
:1031E0000240E8B2029AC01A904204BF08311D465C
:1031F000DDF80CC000980EF1010EBCF1010C0BF1D2
:10320000010B00F0DF800228CDF80CC03FF44EAF78
:10321000012809D000285F463FF44EAF44F25C50CD
:10322000C0F6000046E700BF44F29440C0F600003C
:1032300040E700BF44F25436C0F6000606EB4212E7
:1032400044F25C5A0392019A4FF0000EC0F6000A55
:103250004FF00108A7E000BF44F29440C0F6000020
:1032600000EB0E0740F27000D6B2CDB2C2F2000001
:10327000ED0800EBC60997F9007001F0070B19F88B
:10328000056008FA0BF426EA0403F80708BF46EACB
:103290000403481C09F80530C3B2DB0800F007003E
:1032A00019F8034008FA00F024EA0005BE0758BFE9
:1032B00044EA0005881C09F80350C3B2DB0800F09B
:1032C000070019F8034008FA00F024EA00057E0719
:1032D00058BF44EA0005C81C09F80350C3B2DB0814
:1032E00000F0070019F8034008FA00F024EA00058E
:1032F0003E0758BF44EA0005081D09F80350C3B251
:10330000DB0800F0070019F8034008FA00F024EA8F
:103310000005FE0658BF44EA0005481D09F80350A1
:10332000C3B2DB0800F0070019F8034008FA00F008
:1033300024EA0005BE0658BF44EA0005881D09F8C6
:103340000350C3B2DB0800F0070019F8034008FA85
:1033500000F024EA00057E0658BF44EA0005C81DB7
:1033600009F80350C3B2DB0800F0070019F8034066
:1033700008FA00F044EA0005002F48BF24EA0005DF
:103380000132019C09F80350D0B2029B001B984205
:1033900004BF0831224600980EF1010EBCF1010C69
:1033A0000AF1010A0ED058B101283FF455AF0228A6
:1033B00057467FF457AF44F2DC40C0F600004FE7B9
:1033C00003984DE704B0BDE8F08F00002DE9F0430D
:1033D00081B0994613780D46A3F12001C9B25E2948
:1033E0001BD8DDF8208006464FEA5907541EB9F174
:1033F000080F08BF062700BFF0B2DAB229464B46D5
:10340000CDF80080FFF736FBA3783E44A3F12000FF
:10341000C0B25F2804F10104EED301B0BDE8F0832F
:10342000F0B581B00D464EF2180740F20044064652
:10343000002918BF0125CEF20007C4F20204FEF7EE
:1034400047FB782000F046F8FEF7C4FBA80100F027
:1034500041F8FEF7BFFB304600F03CF8FEF7BAFB40
:103460002046802100220025FDF7A8FF20464021AC
:103470000122FDF7A3FF40F20C01C2F2000157F850
:10348000040C09683A6801EB8101490008E000BFBB
:103490005619F51A934228BF05448D421A460DD29B
:1034A0003B689342F4D13B689342F1D13B6893422D
:1034B000EED13B689342F3D0EAE700BF204680217B
:1034C000012201B0BDE8F040FDF778BF7047000071
:1034D000704700002DE9F04381B04EF2180640F22B
:1034E000004940F20C080446CEF200060027C4F260
:1034F0000209C2F2000809E0484640210022FDF717
:103500005DFF6400072F07F101074BD2E0B2C2094B
:1035100048468021FDF752FF56F8040CD8F80010F9
:10352000356801EB81014900002207E02A44D21AE4
:10353000AB4228BF02448A421D460DD23368AB42DB
:10354000F4D13368AB42F1D13368AB42EED133688A
:10355000AB42F3D0EAE700BF484640210122FDF725
:103560002DFF56F8040CD8F80010356801EB8101E6
:103570004900002208E000BF2A44D21AAB4228BF0B
:1035800002448A421D46B7D23368AB42F4D1336855
:10359000AB42F1D13368AB42EED13368AB42F3D0EA
:1035A000EAE700BF01B0BDE8F0830000FDF712BFFD
:1035B000B0B592B0002443F64000CDE90A44CDE90D
:1035C00008440594CDE90344CDE901440094C4F2D4
:1035D00002000168022541F080510160006800F09E
:1035E00080500090009847F200000094C4F2000060
:1035F000016841F4804101600068A82100F4804026
:1036000000900098012006904FF4803007904FF40E
:1036100080000D9004200E90119006A80C95CDE925
:103620000F15FEF765F818B172B600BFFEE700BFD0
:103630000F20CDE901054FF4A05004904FF48050C5
:10364000059001A805210394FDF76AFF10B172B639
:10365000FEE700BF12B0B0BD4EF68850CEF20000BB
:10366000016841F47001016070470000FEE700004E
:1036700010B50446FDF764FC2046FDF77BFB00F027
:10368000F5FC9FED070B53EC102B00F003FD9FEDB5
:10369000060B53EC102B00F0FDFC41EC100B10BDA1
:1036A0006666666666660A40000000000000303FFD
:1036B0008AB0FDF79DFEFFF77BFFFEF75FFBFEF78D
:1036C00005FBFEF739FBFEF7E3FDFEF799FB4FF034
:1036D00001090020002100221023CDF800900024D1
:1036E000FFF7B2FC1020002101221023CDF800903A
:1036F000FFF7AAFC2020002102221023CDF8009021
:10370000FFF7A2FC3020002103221023CDF8009007
:10371000FFF79AFC4020002104221023CDF80090EE
:10372000FFF792FC5020002105221023CDF80090D5
:10373000FFF78AFC6020002106221023CDF80090BC
:10374000FFF782FC7020002107221023CDF80090A3
:10375000FFF77AFC00201021002210230094FFF7CD
:1037600073FC10201021012210230094FFF76CFC41
:1037700020201021022210230094FFF765FC302046
:103780001021032210230094FFF75EFC402010213B
:10379000042210230094FFF757FC5020102105222B
:1037A00010230094FFF750FC602010210622102304
:1037B0000094FFF749FC7020102107221023009489
:1037C000FFF742FCFFF712F840F23858C2F2000847
:1037D00040460021ADF824400894CDE90644CDE9E7
:1037E0000444CDE90244FDF7E7FC9FED198B40F25C
:1037F000F04719A502AEC2F200071AA44046002104
:1038000000224FF4FA63FDF7BFFC53EC182B30464F
:103810002946FCF7C3FD0020302132461023CDF8A5
:103820000090FFF7D3FD3846FFF722FF53EC102B33
:1038300030462146FCF7B2FD0020202132461023FD
:10384000CDF80090FFF7C2FDFEF7D0FFD6E700BF2E
:103850000000000000C8F93F4441433A252E32667B
:10386000000000004144433A252E3266000000006B
:103870005FEA400C08BF91F0000F4FEA8C234FEA3B
:10388000C12243EA51514FEA1C5018BF00F5F040E5
:103890004FEA300018BF41F000415FEA6C5C00F075
:1038A0002980BCF1FF3F08BF40F080407047130CF7
:1038B00006BF12044FF0100C4FF0000C130E04BFA3
:1038C00012020CF1080C130F04BF12010CF1040CCE
:1038D000930F04BF92000CF1020CD30F04BF5200EF
:1038E0000CF1010C11464FF00002A0F11F00A0EBFB
:1038F0000C00704711F0004F08BF704731F00041D5
:103900003FF4D5AF0B0C06BF09044FF0100C4FF07D
:10391000000C0B0E04BF09020CF1080C0B0F04BFC6
:1039200009010CF1040C8B0F04BF89000CF1020C8F
:10393000CB0F04BF49000CF1010CCCF1200322FA9B
:1039400003F341EA030102FA0CF2A0EB0C0000F1D0
:103950000100704723F07F4720F07F4C80EA03008E
:1039600000F00040ACEB070303F57C5303F1FF03C9
:103970002DE9804909B44FEA144324EA03484FEA89
:10398000154B25EA0B4E0FF2042606EB13273E7863
:1039900003FB0667C7F5000707FB06F64FEAD646A6
:1039A00006F102064FEA543707FB066CCCF1005CC7
:1039B0004FEA1C472CEA074C0CFB06F507FB06F404
:1039C00004EB15464FEA961649085FEA320234BF07
:1039D00000204FF000404FEAD13706FB07FC4FEACA
:1039E0001C4C0CFB0BF7D21B03FB0CF761EB070124
:1039F0000CFB0EF7B0EB074072EB17420CFB08F71D
:103A000034BFA2EB0742B2EB074261EB17414FEA2A
:103A10000C444FEA910706FB07FC4FEA1C4C0CFBD9
:103A20000BF7B0EBC74072EB573203FB0CF734BF18
:103A3000A2EBC742B2EBC74261EB57310CFB0EF76A
:103A4000B0EBC70072EB57720CFB08F734BFA2EB68
:103A5000C702B2EBC70261EB57714FEA816141EADD
:103A600092114FEA826242EA90124FEA806004EBC0
:103A7000CC04039F4FEAD13706FB07FC4FEA1C4CEE
:103A80000CFB0BF7D21B03FB0CF761EB07010CFBE4
:103A90000EF7B0EB074072EB17420CFB08F734BF90
:103AA000A2EB0742B2EB074261EB17414FEA8C559C
:103AB00004EB9C244FEA910706FB07FC4FEA1C4CE1
:103AC0000CFB0BF7B0EBC74072EB573203FB0CF764
:103AD00034BFA2EBC742B2EBC74261EB57310CFBDC
:103AE0000EF7B0EBC70072EB57720CFB08F734BF50
:103AF000A2EBC702B2EBC70261EB57714FEA8161DB
:103B000041EA92114FEA826242EA90124FEA8060E3
:103B100015EB4C2544F100044FEAD13706FB07FCB6
:103B20004FEA1C4C0CFB0BF7D21B03FB0CF761EBB1
:103B300007010CFB0EF7B0EB074072EB17420CFBD2
:103B400008F734BFA2EB0742B2EB074261EB174123
:103B50004FEA813141EA92414FEA823242EA904291
:103B60004FEA80304FEA0C7615EB1C1544F1000447
:103B700048EA03434EEA0B484FF0000EB2EB080C44
:103B800071EB030724BF624639464EEB0E0E4FF031
:103B9000000B0018524149414BEB0B0BB2EB080CE8
:103BA00071EB03077BF1000B24BF624639464EEBF5
:103BB0000E0E4FF0000B0018524149414BEB0B0B1E
:103BC000B2EB080C71EB03077BF1000B24BF6246DC
:103BD00039464EEB0E0E51EA020718BF46F00106B9
:103BE00016EB0E7655F1000254F1000103D5BDE845
:103BF0008901BDE80088BDE88901BDE80048B61923
:103C0000524141EB0101A3F10103704780807F7EA7
:103C10007D7C7B7A79787776767574737271717042
:103C20006F6E6E6D6C6C6B6A6A69686867666665F4
:103C30006464636362616160605F5F5E5E5D5D5C82
:103C40005C5B5B5A5A5959585857575656555555F3
:103C50005454535352525251515050504F4F4F4E53
:103C60004E4D4D4D4C4C4C4B4B4B4A4A4A494949A1
:103C700048484847474747464646454545444444E3
:103C80004443434343424242424141419C46002B0C
:103C900030D477002BD04FEA37071CB503B44FF070
:103CA00010004FF01001BAF1000F06D0BCF1000F68
:103CB000DCBF40F0080040F008014FF000000FBCEE
:103CC000BDE810400BF1010BBBF1010F08BF5FEA2B
:103CD000170722BF12F1010211F101014FF000415B
:103CE00043F1000300F0004043EA00007047F9D3BD
:103CF0005708D0E746EA06464FEA164613F1400F4A
:103D00001FDD13F1200FDFBF16430A4600212033C9
:103D10005B42BED0C3F1200746EA06464FEA16468C
:103D200002FA07F746EA070622FA03F2C3F1200770
:103D300001FA07F742EA070221FA03F14FF0000304
:103D4000A7E746EA020646EA06464FEA164646EA6C
:103D50000106BCBF46EA0646360C4FF000034FF0A2
:103D600000024FF0000194E72DE9804C70B49A46B0
:103D7000934691E8380007C831EA400C48BF34EA5E
:103D8000430C03D5FFF7E6FDFFF780FFF0BCBDE86D
:103D9000008C2DE9804C70B49A46934691E8380027
:103DA00007C810F0804F08BF13F0804F03D100F018
:103DB00005F8FFF76BFFF0BCBDE8008C20F07F47F3
:103DC00023F07F4C80EA030000F0004007EB0C0377
:103DD000A3F57C53A3F1FE0392F0000F00F0B38033
:103DE00095F0000F00F077802DE901494FEA11406E
:103DF00021EA00484FEA144624EA064700FB06FC85
:103E000008FB06F607FB08F818EB06484CEB164CC7
:103E100000FB07F718EB07484CEB17404FEA124B33
:103E200022EA0B4E4FEA154625EA06470BFB06FC35
:103E30000EFB06F607FB0EFE1EEB064E4CEB164C79
:103E40000BFB07F71EEB074E4CEB174B18EB0B0861
:103E500040F1000018EB0E0B58EB000840F1000099
:103E60008F1A4FF000014FF000063CBFC943661B9C
:103E700014BFB5EB040C00213CBFC943F61B4FEA4D
:103E8000174427EA04454FEA1C472CEA074C04FB79
:103E9000076205FB07F70CFB05F616EB074642EB3E
:103EA000174204FB0CFC16EB0C4642EB1C421BEBCE
:103EB000060658EB020241414EEA8E0E46EA9E0685
:103EC00001D5BDE80189B619524141EB0101A3F1C9
:103ED0000103BDE801894FEA144524EA05464FEA8B
:103EE000114721EA074C05FB07F406FB07F70CFB1B
:103EF00006F111EB074144EB174405FB0CFC11EBF9
:103F00000C4144EB1C444FEA124722EA074C05FBE4
:103F100007F206FB07F70CFB06F616EB074642EB2B
:103F2000174205FB0CFC16EB0C4642EB1C456A18CD
:103F300054F1000148BF7047B619524141EB0101ED
:103F4000A3F10103704795F0000F37D04FEA1142FB
:103F500021EA02464FEA144724EA074C02FB07F124
:103F600006FB07F70CFB06F414EB074441EB174183
:103F700002FB0CFC14EB0C4441EB1C414FEA1547CF
:103F800025EA074C02FB07F506FB07F70CFB06F6D4
:103F900016EB074645EB174502FB0CFC16EB0C46EF
:103FA00045EB1C42121951F1000148BF7047B61988
:103FB000524141EB0101A3F1010370474FEA14455F
:103FC00024EA05464FEA114721EA074C05FB07F1B1
:103FD00006FB07F70CFB06F212EB074241EB174119
:103FE00005FB0CFC12EB0C4251EB1C414FF00006A0
:103FF00048BF7047921841EB0101A3F101037047DC
:1040000003B401984100009850EAC12018BF042071
:104010004A0D18BF40F0010040F2FF72B2EB515F51
:1040200008BF40F00200012808BF052002B0704719
:1040300030380A2801D20120704700207047000064
:1040400010B500290AD00878002807D00548784420
:10405000FCF79EFD002801D0002010BD02487844E6
:1040600010BD0000162100000E210000B0FA80F300
:1040700010FA03F10AD0C3F11D0303F580634FEA80
:1040800003524FEA415002EBD12170474FF000003C
:104090007047000070B5DFF848C11CEA111E1EBF52
:1040A0001CEA13159EEA0C0F95EA0C0F00F06F80C6
:1040B00081EA03044EEAD47EAE4421EA4C1123EA9D
:1040C0004C1341F4801143F48013AEF17F7EA1FBC9
:1040D000024CA0FB0365361955EB0C05A1FB034C04
:1040E0004CF10003A0FB021C16EB0C06654153F1DA
:1040F0000003094218BF46F0010613F4007F0BD1FC
:104100004FEA03314FEA053041EA155140EA1650B3
:1041100034036FF003020AE04FEAC3214FEAC520DF
:1041200041EA555140EA5650F4026FF0020202EBA8
:104130002E4201EB025585EACE710AD05FEA440CAB
:1041400018BF24F0004450F1000041F1000120EAC2
:10415000D47040F2FE7C624500D270BDA84214BF0C
:104160004FF080444FF04044002E08BF0024BEF1C1
:10417000806FA8BFA1F1C041BDE8704080F282808D
:1041800001F1C04101F000414FF0000070470CEA1E
:1041900013159EEA0C0F18BF95EA0C0F06D081EAA2
:1041A000030E4FF000000EF0004170BD00F01CF84F
:1041B0008900013E00F007B800F009B84FEA430C4F
:1041C0005FEA5C5C08D081EA030100F05BB84FEA6B
:1041D000410C5FEA5C5CF6D102494FF00000704789
:1041E0000000FF070000F87F0EF1020E2EF0030E14
:1041F0005EF8046B364205D4012A43EB030515F53E
:10420000001F12D8012841EB010C1CF5001F0CD82F
:104210000ED14FEAD17C0CEB4C0C0CF1020C15F5D5
:10422000001F08BF4CEBD37C04E04FF0080C01E00A
:104230004FEAD37C0CEB4C0526FA05F606F0070690
:10424000B6F1040C06D20EEB860CBDE870404CF0C3
:10425000010C6047DFE80CF0090B02024FF000414F
:10426000A1F500214FF0000070BD1946104601284D
:1042700051EB010418BFD4F5001484BF002001F0F5
:10428000004170BD0808A0F500114FEA31017047E8
:10429000F1EE100A4FF6FF71C0F2C03120EA0100C2
:1042A00040F04070E1EE100A7047FCF7EDB90000F5
:1042B00002400000000000A00000000005400000D7
:1042C000000000C8000000000C4000000000409CFE
:1042D00000000000194000000020BCBE00000000EB
:1042E00034400000BFC91B8E00000004B540000030
:1042F000504BCFD06607E2CF010000006C410000B8
:104300003E8251AADFEEA73401000000D94200002E
:10431000DCB5A0E23A301F97FFFFFFFFB445000075
:10432000FD25A0C8E9A3C14FFFFFFFFFFF3F00002D
:104330000000008000000000FF3F0000000000803F
:104340000000000000000000000000000102030463
:1043500006070809000000BE2A2A2AEA2A2A2A3E5D
:1043600000000000004442494949497F4949494900
:10437000414000000000FE829292929292929292AC
:104380009282000040300F0000FF40200304081418
:104390002240400004244484649C40300FC8080834
:1043A0002818000010080601824C20180601061883
:1043B00020408000404042CC0000FC040200FC048D
:1043C00004FC00000040201F20404F4442407F4238
:1043D00044434000201008FC2310886704F40424A0
:1043E000548C000040300077808188B2848380E064
:1043F000001160004042CC0000445454547F545497
:104400005444400000007F201000FF1515155595FD
:104410007F000000000484848484848484848484F1
:104420008404000020202020202020202020202084
:1044300020202000404042CC000444645C47F44407
:10444000444404000040201F2044444444447F442A
:104450004444440000FC0404FC20504844434448C5
:1044600050202000000F04040F00FE42424242424E
:10447000FE00000000FC0404FC2050484443444873
:1044800050202000000F04040F00FE42424242422E
:10449000FE000000000000C080808080808080FCE2
:1044A00084808080808080C0C0000000000000FF09
:1044B0007F404040404040FF40404040404040FF3F
:1044C0007F00000000000000000000000000007FEE
:1044D000700000000000000000000000000000006C
:1044E0000000000000000000000000FCF8000000D8
:1044F00000000000000000000000000000000000BC
:10450000FFFE020202020202020202FFFF02020298
:10451000020202020202FF0300000000000000008D
:104520001F1F040404040404040404FFFF0404041F
:104530000404040404041F00000000000000000044
:1045400000000000000000000000007F3F000000AD
:10455000000000000000000000000000000000005B
:10456000000000000000000000000000000000004B
:10457000000000000000000000F8F8F0F0702000DB
:10458000000000000000000000000000000000002B
:10459000000000000000000000000000000000001B
:1045A000000000008000000000000000000000008B
:1045B000000000000000000000FFFFFFFF000000FF
:1045C00000000000000000000000000000000000EB
:1045D00080800000000000000000000000000000DB
:1045E0000000000000FFFFFE06060606060606069F
:1045F000060606060606060606FFFFFFFF06060677
:10460000060606060606060606060606060606FF51
:10461000FFFFFF0702000000000000000000000094
:104620000000000000FFFFFF00000000000000008D
:10463000000000000000000000FFFFFFFF0000007E
:10464000000000000000000000000000000000FF6B
:10465000FFFFFF000000000000000000000000005D
:104660000000000000FFFFFF18181818181818188D
:10467000181818181818181818FFFFFFFF1818181E
:10468000181818181818181818181818181818FFC3
:10469000FFFFFF000000000000000000000000001D
:1046A0000000000002010100000000000000000006
:1046B000000000000000000000FFFFFFFF000000FE
:1046C00000000000000000000000000000000001E9
:1046D00001000000000000000000000000000000D9
:1046E00000000000000000000000000000000000CA
:1046F000000000000000000000FFFFFFFF000000BE
:1047000000000000000000000000000000000000A9
:104710000000000000000000000000000000000099
:104720000000000000000000000000000000000089
:104730000000000000000000001F1F0F0F0000001D
:104740000000000000000000000000000000000069
:104750000000000000000000000000000000000059
:1047600000000000002F00000000070007000014F8
:104770007F147F1400242A7F2A1200626408132306
:1047800000364955225000000503000000001C229D
:104790004100000041221C000014083E08140008DB
:1047A000083E0808000000A060000008080808088B
:1047B000000060600000002010080402003E514923
:1047C000453E0000427F40000042615149460021C1
:1047D00041454B31001814127F10002745454539DB
:1047E000003C4A4949300001710905030036494936
:1047F000493600064949291E0000363600000000EF
:104800005636000000081422410000141414141439
:1048100000004122140800020151090600324959E2
:10482000513E007C1211127C007F49494936003EFE
:1048300041414122007F4141221C007F49494941B9
:10484000007F09090901003E4149497A007F0808B3
:10485000087F0000417F4100002040413F01007F70
:1048600008142241007F40404040007F020C027F3C
:10487000007F0408107F003E4141413E007F09094E
:104880000906003E4151215E007F09192946004674
:10489000494949310001017F0101003F4040403F4B
:1048A000001F2040201F003F4038403F0063140895
:1048B0001463000708700807006151494543000070
:1048C0007F41410000552A552A55000041417F0093
:1048D0000004020102040040404040400000010288
:1048E0000400002054545478007F48444438003871
:1048F0004444442000384444487F003854545418F9
:1049000000087E0901020018A4A4A47C007F08040A
:1049100004780000447D4000004080847D00007FDA
:10492000102844000000417F4000007C04180478F7
:10493000007C0804047800384444443800FC2424F3
:1049400024180018242418FC007C080404080048DB
:104950005454542000043F444020003C4040207CFC
:10496000001C2040201C003C4030403C00442810EB
:104970002844001CA0A0A07C004464544C4414149F
:1049800014141414000000000000000000000000D7
:104990000000FC000000000002000000000C020CFF
:1049A000020000000000000090D0BCD0BC900003CA
:1049B000000300001824FE448C00030207020100DB
:1049C0001824D8B04C80000300010201C038E4383C
:1049D000E0000102020102020806000000000000DF
:1049E00000000000000000F80402000000010204C2
:1049F000000204F800000004020100009060F8606A
:104A000090000000010000002020FC202000000099
:104A10000100000000000000000008060000000087
:104A200020202020200000000000000000000000E6
:104A300000000002000000000080601C020004036F
:104A400000000000F8040404F80001020202010062
:104A50000008FC0000000002030200001884442447
:104A6000180003020202020008042424D8000102F4
:104A70000202010040B088FC800000000003020038
:104A80003C242424C400010202020100F824242C46
:104A9000C0000102020201000C04E41C040000003A
:104AA00003000000D8242424D800010202020100DF
:104AB00038444444F80000030202010000001000E2
:104AC00000000000020000000000200000000000C4
:104AD00006000000002050880402000000000102CF
:104AE0009090909090000000000000000002048868
:104AF00050200002010000001804C4241800000027
:104B000002000000F804E494F8000102020202002E
:104B100000E09CF0800002030000030204FC242457
:104B2000D800020302020100F80404040C00010290
:104B30000202010004FC0404F80002030202010066
:104B400004FC24740C0002030202030004FC24741D
:104B50000C00020302000000F0080444CC400001F5
:104B60000202010004FC2020FC04020300000302F6
:104B70000404FC040400020203020200000404FC1A
:104B8000040406040403000004FC24D00C04020303
:104B90000200030204FC04000000020302020203FC
:104BA000FC3CC03CFC0003000300030004FC30C4D8
:104BB000FC04020302000300F8040404F8000102EC
:104BC0000202010004FC2424180002030200000079
:104BD000F8848404F80001020207050004FC246440
:104BE0009800020302000302182424448C000302EC
:104BF000020201000C04FC040C000002030200008D
:104C000004FC0000FC04000102020100047C80E0BE
:104C10001C040000030000001CE03CE01C0000033A
:104C200000030000049C609C0400020300030200D7
:104C3000041CE01C04000002030200000C84641C3D
:104C400004000203020203000000FE020200000052
:104C500007040400000E30C0000000000001020044
:104C6000000202FE00000004040700000004020429
:104C70000000000000000000000000000000080824
:104C80000808080800000200000000000000000002
:104C90000040A0A0C00000010202030204FC20208A
:104CA000C00000030202010000C0202060000001DB
:104CB0000202020000C02024FC00000102020302E4
:104CC00000C0A0A0C0000001020202000020F824E1
:104CD00024040002030202000040A0A0602000079C
:104CE0000A0A0A0404FC2020C00002030200030296
:104CF0000020E4000000000203020000000020E4A5
:104D0000000008080807000004FC80E020200203DF
:104D1000020003020404FC0000000202030202007D
:104D2000E020E020C00003000300030020E020207A
:104D3000C00002030200030200C02020C0000001E6
:104D40000202010020E02020C000080F0A0201003A
:104D500000C02020E0000001020A0F0820E04020EF
:104D600020000203020000000060A0A0200000025A
:104D7000020203000020F8200000000001020200EF
:104D800020E00020E00000010202030220E0208079
:104D900060200000030100006080E08060000003EC
:104DA0000003000020608060200002030003020076
:104DB00020E0208060200808070100000020A0609B
:104DC0002000000203020200000020DE02000000BA
:104DD00000070400000000FF00000000000F0000BA
:104DE0000002DE20000000040700000002010204AF
:104DF00004020000000000000000000000000000AD
:104E00000000000000000000000000F800000000AA
:104E1000000000333000000000100C06100C0600EB
:104E2000000000000000000040C07840C078400052
:104E3000043F04043F040400007088FC08300000B4
:104E4000001820FF211E0000F008F000E01800000C
:104E500000211C031E211E0000F0088870000000C5
:104E60001E2123241927211010160E000000000017
:104E70000000000000000000000000E01804020034
:104E8000000000071820400000020418E0000000A5
:104E90000040201807000000404080F080404000A3
:104EA0000202010F01020200000000F000000000F9
:104EB0000101011F010101000000000000000000CD
:104EC00080B0700000000000000000000000000042
:104ED00000010101010101010000000000000000CB
:104EE0000030300000000000000000008060180466
:104EF000006018060100000000E010080810E00043
:104F0000000F102020100F00001010F8000000000B
:104F10000020203F20200000007008080888700052
:104F200000302824222130000030088888483000D2
:104F30000018202020110E000000C02010F80000F2
:104F400000070424243F240000F80888880808008B
:104F50000019212020110E0000E0108888180000A0
:104F6000000F112020110E0000380808C838080072
:104F70000000003F000000000070880808887000F2
:104F8000001C222121221C0000E010080810E00073
:104F90000000312222110F00000000C0C0000000FC
:104FA0000000003030000000000000800000000021
:104FB0000000806000000000000080402010080019
:104FC00000010204081020004040404040404000E2
:104FD00004040404040404000008102040800000BD
:104FE0000020100804020100007048080808F000C2
:104FF0000000003036010000C030C828E810E00092
:105000000718272423140B000000C038E00000001C
:10501000203C23020227382008F888888870000086
:10502000203F202020110E00C0300808080838005A
:10503000071820202010080008F808080810E000D1
:10504000203F202020100F0008F88888E808100072
:10505000203F20202320180008F88888E808100046
:10506000203F200003000000C0300808083800007E
:1050700007182020221E020008F808000008F8087F
:10508000203F210101213F20000808F80808000006
:105090000020203F2020000000000808F808080039
:1050A000C08080807F00000008F888C028180800B1
:1050B000203F20012638200008F8080000000000EA
:1050C000203F20202020300008F8F800F8F80800E1
:1050D000203F003F003F200008F830C00008F808DB
:1050E000203F200007183F00E01008080810E000EB
:1050F0000F10202020100F0008F808080808F00002
:10510000203F210101010000E01008080810E00024
:105110000F18242438504F0008F8888888887000B9
:10512000203F2000030C3020007088080808380059
:105130000038202121221C00180808F8080818004F
:105140000000203F2000000008F808000008F808D0
:10515000001F202020201F000878880000C8380881
:10516000000007380E010000F80800F80008F800F9
:10517000033C0700073C0300081868808068180893
:1051800020302C03032C30200838C800C838080011
:105190000000203F2000000010080808C838080060
:1051A0002038262120201800000000FE0202020004
:1051B0000000007F40404000000C30C000000000B4
:1051C000000000010638C00000020202FE000000DC
:1051D000004040407F000000000004020202040082
:1051E00000000000000000000000000000000000BF
:1051F00080808080808080800002020400000000A7
:10520000000000000000000000008080808000009E
:105210000019242222223F2008F80080800000008C
:10522000003F112020110E0000000080808000004F
:10523000000E112020201100000000808088F8005E
:10524000000E112020103F20000080808080000090
:10525000001F222222221300008080F088888818F4
:105260000020203F202000000000808080808000FF
:10527000006B94949493600008F800808080000094
:10528000203F210000203F2000809898000000006F
:105290000020203F2020000000000080989800009F
:1052A00000C08080807F000008F8000080808000BF
:1052B000203F24022D302000000808F800000000E4
:1052C0000020203F2020000080808080808080009F
:1052D000203F20003F20003F808000808080000031
:1052E000203F210000203F200000808080800000BF
:1052F000001F202020201F008080008080000000F0
:1053000080FFA12020110E0000000080808080001E
:10531000000E112020A0FF8080808000808080000F
:1053200020203F212000010000008080808080003C
:105330000033242424241900008080E080800000B1
:105340000000001F202000008080000000808000FE
:10535000001F202020103F2080808000008080805F
:1053600000010E30080601008080008000808080EF
:105370000F300C030C300F00008080008080800014
:105380000020312E0E31200080808000008080803F
:1053900080818E70180601000080808080808000EF
:1053A0000021302C2221300000000000807C02020D
:1053B00000000000003F404000000000FF0000002F
:1053C00000000000FF0000000002027C80000000DE
:1053D0000040403F000000000006010102020404FA
:1053E00000000000000000000000000000000000BD
:1053F00000000000000000000000000000000000AD
:10540000000000000000000000000000000000009C
:1054100000F0F0F0000000000000000000017F013B
:105420000000000000000000001C1C1C0000000028
:1054300000008060301C8C60301C0C0000000000FC
:10544000000000000000000000000000000000005C
:1054500000000000000000E00000000000E000008C
:105460000086E69F86868686E69F860000011F01ED
:10547000010101011F010100000080C06020F8202F
:10548000E0C00000000003070C18FF70E18100007D
:105490000000070F10107F100F07000080602060D1
:1054A00080000000E02000000F3020309F70DC37CB
:1054B0001030C0000000100E03000718101807007D
:1054C0000000C02020E0C0000000000080E01F3885
:1054D000E88703C43C040000070F1810100B070DE9
:1054E0001010080000808C4C380000000000000004
:1054F00000000000000000000000000000000000AC
:10550000000000000000000000000000000080E03B
:10551000300804000000000000FEFF010000000051
:10552000000000000000030F1820400000040830B5
:10553000E0800000000000000000000001FFFE000D
:1055400000000000004020180F03000000000000D1
:10555000000000000000C00000000000004266667D
:105560003C18FF183C666642000000000000030083
:1055700000000000000000000000800000000000AB
:10558000001010101010FF1010101010000000007C
:105590000000030000000000000000000000000008
:1055A00000000000000000000000000000000000FB
:1055B00000808C4C3800000000000000000000005B
:1055C000000000000000000000101010101010106B
:1055D000101010000000000000000000000000009B
:1055E00000000000000000000000000000000000BB
:1055F000000000000000000000001C1C1C00000057
:10560000000000000000000000000000E0380C0076
:105610000000000080701C03000000000060380ED5
:105620000100000000000000000080C06020206039
:10563000C080000000FEFF010000000001FFFE002E
:105640000001070E181010180E07010000008080DE
:1056500080C0E000000000000000000000FFFF002C
:105660000000000000001010101F1F10101000009C
:105670000080402020202060C08000000003030044
:10568000804020381F070000001C1A19181818182D
:10569000181F00000080C020202060C08000000093
:1056A000000303001010182FE780000000070F1000
:1056B000101010180F070000000000000000C0E0EC
:1056C000F000000000C0B088868180FFFF8080006D
:1056D000000000000010101F1F1010000000E0600C
:1056E000606060606060000000003F1008080818FB
:1056F000F0E0000000070B101010101C0F0300005A
:10570000000080C040202020E0C0000000FCFF21FD
:105710001008080818F0E0000001070C181010101D
:10572000080F03000000C0E06060606060E060009F
:10573000000003000000E018070000000000000067
:10574000001F1F00000000000080C06020202020FB
:1057500060C080000087EF2C1818303068CF8300BD
:1057600000070F0810101010180F07000000C0C02D
:1057700020202020C0800000001F3F6040404020CB
:1057800010FFFE0000000C1C101010080F0300009A
:105790000000000000000000000000000000000009
:1057A000000E0E0E0000000000000000001C1C1C7B
:1057B00000000000000000000000000000000000E9
:1057C00000000000000C0C000000000000000000C1
:1057D00000583800000000000000000000000080B9
:1057E000402010000000102844820100000000004A
:1057F000000000000000010204081000000000008A
:1058000000000000000000000084848484848484FC
:1058100084848400000000000000000000000000FC
:105820000000102040800000000000000000000088
:10583000000001824428100000001008040201004A
:105840000000000000C020201010101030E0C00048
:105850000003030000F010080C0703000000000024
:105860001C1C1C0000000000000000C04060202044
:105870002040C00000FCFF01F00E03C1FE03807F4A
:105880000001070E081111101109040200000000A8
:1058900080E0E000000000000000807C4340477F83
:1058A000F880000010181F1000000000131F1C10CB
:1058B00020E0E02020202060C080000000FFFF10DA
:1058C000101010182FE78000101F1F10101010105C
:1058D000180F0700000080C0402020202060E0005A
:1058E00000FCFF0100000000000001000001070EA5
:1058F000181010100804030020E0E02020202040B1
:10590000C080000000FFFF000000000001FFFE005B
:10591000101F1F10101018080E07010020E0E020D3
:10592000202020202060800000FFFF101010107C3D
:1059300000000000101F1F1010101010101806009B
:1059400020E0E020202020206060800000FFFF1089
:105950001010107C00000100101F1F10000000003C
:1059600000000000000080C06020202040E0000017
:1059700000FCFF0100004040C0C140400001070E94
:10598000181010100F0F000020E0E02000000000B1
:1059900020E0E02000FFFF101010101010FFFF00AB
:1059A000101F1F1000000000101F1F1000002020FB
:1059B00020E0E020202000000000000000FFFF00A9
:1059C0000000000000001010101F1F101010000039
:1059D00000000000202020E0E02020200000000047
:1059E000000000FFFF0000000060E0808080C07FBA
:1059F0003F00000020E0E020000020A06020200008
:105A000000FFFF30187CE3C000000000101F1F10D3
:105A1000000001131F1C181020E0E020000000000F
:105A20000000000000FFFF00000000000000000078
:105A3000101F1F10101010101018060020E0E0E0DA
:105A400000000000E0E0E02000FF013FFEC0E01E9B
:105A500001FFFF00101F1000031F0300101F1F1085
:105A600020E0E0C0000000000020E02000FF000374
:105A7000071C78E08000FF00101F100000000000ED
:105A8000030F1F00000080C060202060C080000065
:105A900000FEFF010000000000FFFE000001070EF5
:105AA000181010180C07010020E0E0202020202012
:105AB00060C0800000FFFF2020202020301F0F004A
:105AC000101F1F100000000000000000000080C038
:105AD00060202060C080000000FEFF010000000088
